:100000000C9403060C9470080C944A060C944A064F
:100010000C944A060C944A060C944A060C944A0620
:100020000C944A060C944A060C94402C0C94122D05
:100030000C9435220C944A060C944A060C944A06F9
:100040000C944A060C944A060C944A060C944A06F0
:100050000C944A060C949D220C944A060C944A0671
:100060000C944A060C944A060C944A060C944A06D0
:100070000C944A060C944A060C944A060C944A06C0
:100080000C944A060C944A060C944A060C944A06B0
:100090000C944A060C944A060C944A060C944A06A0
:1000A0000C944A060C944A060C944A06110A130A48
:1000B0001E0A150A170A190A1B0A1D0A200A220A13
:1000C000240A2F0A260A280A2A0A2C0A2E0A310A8A
:1000D000C418C418F618F61834195219DA1ADA1AAC
:1000E0009419DA1A371A371AA91AB21ADA1AD31A5D
:1000F000441A441A441A441A441A441A441A441A10
:10010000441A441A441A441A441A441A441A441AFF
:10011000551A631A6A1A711A7B1A6B1B6B1B7D1BAB
:100120007D1B741B7D1B7D1B7D1B6B1B6B1B791B40
:100130007D1B7D1B791B7F2DA62D9E2EA62D9E2E11
:10014000F22D152E9E2E6C2E7B2E07634236B79B0A
:10015000D8A71A39685618AEBAAB558C1D3CB7CC27
:100160005763BD6DEDFD753EF6177231BF0000009F
:10017000803F05A84CCDB2D44EB93836A9020C50F8
:10018000B9918688083CA6AAAA2ABE000000803F32
:1001900029001E001F002000210022002B00140057
:1001A0001A00080015001700E100040016000700FF
:1001B00009000A00E0001D001B00060019000500F0
:1001C000000000004A00E300DC5C28002A00270051
:1001D00026002500240023004C00130012000C0010
:1001E00018001C00340033000F000E000D000B003F
:1001F000E500380037003600100011000000000054
:100200004D00E200DD5C2C0035021E021F022002C0
:1002100021022202005C1E001F002000210022009B
:100220004C00010050004F0052002F00BE5C010046
:100230000100010051002F02000000002602010011
:1002400001004C002A002702260225022402230274
:1002500001002700260025002400230031022E0281
:100260005E005D005C00300001002D005B005A0064
:1002700059003002000000002702620001004C001B
:1002800045003A003B003C003D003E0001001E02DC
:100290001F022002210222020100AC00AB00A900D3
:1002A0004B002D02A800AD00AE00AA004E002D00AC
:1002B00000000000010001000100010044004300B3
:1002C0004200410040003F000100270226022502B3
:1002D0002402230231000100010001004A002E0027
:1002E00001000100010001004D002E02000000008D
:1002F00001000100010001000000000000000000FA
:1003000000000000000000000000000000000000ED
:1003100000000000000000000000000000000000DD
:1003200000000000000000000000000000000000CD
:1003300000000000000000000000000000000000BD
:10091000010001000100010001000100C05CC15C98
:10092000C35CC55CC75C01000100015CC45CC65CC3
:10093000C85C0100BE5C005C010001000100010018
:1009400000000000010001000100010001000100A1
:10095000010001000100010001000100010001008F
:10096000010001000100010001000100010001007F
:100970000100010001000100010001000000000071
:10098000010001000100010000046801F000B40052
:1009900078005A007F3F1F643214643214783C1E82
:1009A0001E140A05000000000001010101010101FF
:1009B0000101020202020202020202030303030314
:1009C00003030304040404040405050505050606E1
:1009D00006060607070707080808080909090A0A9A
:1009E0000A0A0B0B0B0C0C0C0D0D0D0E0E0F0F0F3E
:1009F00010101111111212131314141515161617C5
:100A000017181819191A1A1B1C1C1D1D1E1F1F2030
:100A1000202122222324252526272728292A2B2B7B
:100A20002C2D2E2F2F30313233343536363738399E
:100A30003A3B3C3D3E3F4041424344464748494A99
:100A40004B4C4D4F50515253555657585A5B5C5E64
:100A50005F606263646667696A6C6D6E70717374FF
:100A60007678797B7C7E8081838486888A8B8D8F63
:100A700091929496989A9B9D9FA1A3A5A7A9ABAD8F
:100A8000AFB1B3B5B7B9BBBDBFC1C4C6C8CACCCF7F
:100A9000D1D3D6D8DADCDFE1E4E6E8EBEDF0F2F52D
:100AA000F7FAFCFF0403300000001C034900720049
:100AB0006900730020004B006500790062006F0040
:100AC00061007200640000000E034B0065006500C9
:100AD000620069006F000000040309040902540069
:100AE000030100A0FA09040000010301010009212B
:100AF000110100012240000705810308000A0904D2
:100B000001000103010200092111010001224D0031
:100B10000705820308000A0904020001030000001F
:100B20000921110100012236000705830308000A8C
:100B30001201100100000008EBCE56120002010263
:100B4000030105010980A1018502160100260300A9
:100B50001A81002A8300751095018100C0050C09D7
:100B600001A1018503160100269C021A01002A9C9E
:100B700002751095018100C005010902A10109015A
:100B8000A100050919012905150025019505750123
:100B90008102950175038101050109300931158133
:100BA000257F95027508810609381581257F9501F5
:100BB00075088106050C0A38021581257F95017597
:100BC000088106C0C005010906A101050719E02931
:100BD000E7150025019508750181029501750881C9
:100BE0000105081901290595057501910295017501
:100BF0000391010507190029FF150026FF0095063E
:100C000075088100C00011241FBECFEFDAE0DEBFFF
:100C1000CDBF04B603FE27C08091430290914402E9
:100C2000A0914502B09146028730904BA740B04B4F
:100C3000D1F4109243021092440210924502109295
:100C4000460214BE84B7877F84BF0FB6F894A89578
:100C500080916000886180936000109260000FBEF8
:100C6000E0E0F8E3099511E0A0E0B1E0EEEBF5E695
:100C700002C005900D92A034B107D9F722E0A0E49C
:100C8000B1E001C01D92A334B207E1F70E946B29C5
:100C90000C94DD320C94000008950C944C060C94D6
:100CA0004C06CF93DF938091EC0183608860809342
:100CB000EC01ACE1B1E041E251E061E070E08D9126
:100CC000E82FE295EF70F0E021A18F70EB0102C0F8
:100CD000CC0FDD1F8A95E2F7CE019C2F90959223D1
:100CE00091A392A1892B82A34A175B0741F7A6E142
:100CF000B1E04CE151E061E070E08D91E82FE295C8
:100D0000EF70F0E021A18F70EB0102C0CC0FDD1F6E
:100D10008A95E2F7CE019C2F9095922391A392A100
:100D2000892B82A34A175B0741F7559A209AE0E482
:100D3000F1E0ABE4B1E08AE491E011921D928E17EC
:100D40009F07D9F7DF91CF910C94E20C2F923F923D
:100D50004F925F926F927F928F929F92AF92BF92CB
:100D6000CF92DF92EF92FF920F931F93CF93DF9377
:100D700000D000D0CDB7DEB780910001811103C053
:100D800005E010E002C000E010E08CE1C82E81E038
:100D9000D82E9801255B3E4F790191E2892E91E092
:100DA000992E3C832B83AA24A394B12C772473948B
:100DB0006B817C81DB015C901C92F60181916F015B
:100DC000E82FE295EF70F0E021A18F70A50102C03D
:100DD000440F551F8A95E2F7CA01242B21A322A1B3
:100DE000642E6094262122A350EA5A95F1F7A6E1D9
:100DF000B1E0BA83A98320E030E0A981BA813D90B7
:100E0000BA83A983432D42954F7050E0DA01909642
:100E10002C90AB81BC814C90432D4F70D50102C00A
:100E2000AA0FBB1F4A95E2F7AD01422141F45A2DAA
:100E3000022E01C0550F0A94EAF7452F01C040E089
:100E40004429AB81BC814C932F5F3F4F2630310545
:100E5000A1F691A1692261A292A1892B82A3119688
:100E6000BC83AB83FB018081581641F07092550121
:100E70000E94672290935701809356018C149D0421
:100E800009F096CF809155018823A9F080915601F1
:100E9000909157010E947322069768F0F801E05C78
:100EA000FE4F80E0D7019D917D0191938F5F85304A
:100EB000C9F71092550181E00F900F900F900F909D
:100EC000DF91CF911F910F91FF90EF90DF90CF9026
:100ED000BF90AF909F908F907F906F905F904F905A
:100EE0003F902F900895CF93DF938091000181115F
:100EF00003C0C0E0D0E002C0C5E0D0E00E94D50849
:100F0000AC01892BC1F4C05CDE4F20E030E0F90178
:100F1000E65AFE4F808189932F5F3F4F2530310580
:100F2000B1F79091350290FF02C0969501C090E014
:100F30009093590102C041E050E0CA01DF91CF9186
:100F40000895CF930E94A606C82F0E947307892B8D
:100F5000D9F05D9880914A018F5F80934A01863075
:100F6000B0F080910001811103C0E0E0F0E002C028
:100F7000E5E0F0E0E05CFE4F80E090E01192019649
:100F800085309105D9F703C05D9A10924A010E94FD
:100F9000760C8C2FCF9108950E94A60680910001B7
:100FA000811103C0E5E0F0E002C0E0E0F0E0E05CC9
:100FB000FE4F80E090E02191DC01A65ABE4F2C93B9
:100FC000019685309105B9F7809159010C94780C00
:100FD000E82FF0E0E05CFE4F808108950895E8ED91
:100FE000F0E08081806180838AE18A95F1F700C01A
:100FF0008091D900817008950E94EF0780930001CD
:101000000E94EF07882319F00E94630804C00E9421
:101010005E220E946708789408950E9451060E94FB
:10102000CC07FDCF0E94FC070E94EF07811102C090
:101030000E940D080895509A08955098589A08955E
:10104000589A08950E941D08489BFECF80E88A9513
:10105000F1F708950E941D0898E080E029B1880FFB
:101060002170822B20E82A95F1F725E02A95F1F7E7
:101070000000915099F708950F931F93CF93082F75
:101080000E941B08C8E010E0C15088F0C8010C2E77
:1010900002C0959587950A94E2F780FF03C00E94ED
:1010A000200801C0589880E88A95F1F7EDCFCF91DC
:1010B0001F910F9108950E941B08589880E88A9507
:1010C000F1F70C9420080E941B080C9420080E9441
:1010D0001D08E89AE9E6F0E080818C7F808308951E
:1010E0001F920F920FB60F921124EF92FF921F934F
:1010F0002F933F934F935F936F937F938F939F9320
:10110000AF93BF93CF93DF93EF93FF930E945B085E
:10111000C0E0D0E010E0CE01865A9E4F7C01FC0179
:1011200080810E943C080E945B08F7018081180FB3
:101130002196C530D10579F7812F0E943C080E9485
:101140005B08F0E8FA95F1F780E48A95F1F70E94E0
:101150002A08809359010E945B08C09159010E949E
:101160002A08D82F0E945B080E941D088091580110
:10117000DC1711F0816001C08E7F80935801FF91D0
:10118000EF91DF91CF91BF91AF919F918F917F911F
:101190006F915F914F913F912F911F91FF90EF9031
:1011A0000F900FBE0F901F901895EF92FF921F9314
:1011B000CF93DF93F8940E941B08589825E02A9556
:1011C000F1F700000E941D080E94200830E83A95BF
:1011D000F1F7489930C00E942208C0E0D0E010E04A
:1011E0000E942A08FE01E65AFE4F7F0180830E947A
:1011F0002208F7018081180F2196C530D10581F7AB
:101200000E942A08C82F0E9422081C1314C0809133
:1012100059010E943C080E942208809159010E94B5
:101220003C080E9422080E941B080E942008789413
:1012300080E090E003C0789481E090E0DF91CF916E
:101240001F91FF90EF9008950C944D06CF93DF937C
:10125000EC010E948421BE0180E090E0DF91CF91FB
:101260000C945F1FCF93FB018C3D2CE59207A9F0F6
:1012700020F48B3D9C4549F032C08D3D2CE5920712
:1012800079F08E3D9C4501F12AC0C281CC2341F109
:1012900081E090E00E9426091DC0C28181E002C069
:1012A000C28182E0CC2341F00E94BF1F40E162E096
:1012B00081E00E94640C0EC00E94E01F40E162E0E9
:1012C00081E00E94640C0CC0C28180E1CC2321F03B
:1012D0000E94BF1FC0E004C00E94E01F01C0C1E027
:1012E0008C2FCF91089581E008950C9432090E94CB
:1012F000571B2FEF84E39CE0215080409040E1F7A2
:1013000000C0000087E797E79093010880930008EA
:101310000C94C3220F931F93CF93DF938C01FC0196
:10132000C081D181CE010E945D20BE010E94EF0CE0
:10133000EC01B8010E947509882309F46BC2B80159
:10134000CE010E94850F882309F464C2C93CFCE5E4
:10135000DF0741F4F8018281882309F45BC20E940F
:10136000701058C2CA3C8CE5D80708F012C1C13CC5
:101370009CE5D90761F4F8018281882309F44AC207
:101380000E940F218272F1F00E94941243C2C23C6B
:10139000ECE5DE07D0F0F8018281C53CFCE5DF0713
:1013A00009F4CCC008F0DCC0C33CECE5DE0709F46E
:1013B000CBC008F0CFC0882309F42CC20E940F21B3
:1013C000827211F30E948A1225C2C531FCE5DF0743
:1013D00008F07DC0C2308CE5D80708F452C0F8018F
:1013E0008281882309F459C00E947121811102C0B1
:1013F0000E944B210E94892190E0909334028093B7
:101400003302FE01E350FC45E231F10530F4EA5AC3
:10141000FF4F809133020C947532809133028160CA
:1014200027C0826025C0846023C0806121C08062A3
:101430001FC080641DC080681BC08460886018C0A5
:101440008E7F16C08D7F14C08B7F12C08F7E10C020
:101450008F7D0EC08F7B0CC08F770AC08B7F877FFC
:1014600007C087FB222720F991E0922790FB87F99C
:1014700080933302809133020E948D210E94571B7A
:10148000C9C1C1159CE5D90779F0C130DC45A1F08F
:1014900081E08093640180936501C801DF91CF9161
:1014A0001F910F910C947309F8018281882309F42C
:1014B000B1C10E947709AEC1F8018281882309F485
:1014C000A9C18091EC0181608093EC01A3C1C53179
:1014D000FCE5DF0739F50E940F21982FF801828182
:1014E0002091030130910401882379F09A7A81E0F8
:1014F00009F480E080935F01911102C069E201C0AC
:1015000065E3C9010E94CF210AC080915F0181116A
:1015100002C069E201C065E3C9010E94D1210E94B5
:10152000DC2078C1C03CDC4509F0B2CFF8018281F3
:10153000882309F46FC10E94F2126CC1882309F458
:1015400069C10E94CF1166C1882309F463C10E945A
:10155000981160C1882309F45DC10E94B0115AC17D
:10156000C73C9CE5D90731F4882309F453C10E9494
:10157000041250C1C83CDC4530F4882309F44AC148
:101580000E94EA1147C1882309F444C10E941F1236
:1015900041C1C13DFCE5DF0749F4F80182818823A0
:1015A00009F438C188E10E94871234C1C23D8CE53C
:1015B000D80708F087C0F8018281CD3CFCE5DF0741
:1015C000A1F4882309F426C10E94621066307105D7
:1015D0008105910540F00E94621068307105810517
:1015E000910508F4EFCE86E0DECFCE3C9CE5D9072E
:1015F00030F5CB3CECE5DE0729F4882309F40AC179
:1016000081E0D1CFCC3CDC4530F4882309F402C121
:101610000E948510FFC0882309F4FCC00E9462105C
:10162000623071058105910540F00E9462106530BD
:1016300071058105910508F4C5CE82E0B4CFCF3C99
:101640009CE5D907A1F4882309F4E4C00E94621044
:101650006F3071058105910540F00E946210643180
:1016600071058105910508F4ADCE8FE09CCFC03D9A
:10167000DC45A0F4882309F4CDC00E9462106930D3
:1016800071058105910540F00E9462106E30710570
:101690008105910508F496CE89E085CF882309F469
:1016A000B9C00E946210653171058105910540F055
:1016B0000E946210673171058105910508F482CEA0
:1016C00085E171CFC53DFCE5DF0739F5F801828181
:1016D000882361F0109265010E9467229093630154
:1016E0008093620180E20E94811894C0809165011C
:1016F00081110FC080916201909163010E94732259
:10170000883C910530F487E20E94201787E20E940E
:10171000221880E20E9488187DC0C63D8CE5D8075B
:1017200008F043C0F8018281C33DFCE5DF0729F4DE
:10173000882309F46FC083E236CFC43DDC45A0F4B2
:10174000882309F467C00E94621069317105810520
:10175000910540F00E946210623271058105910589
:1017600008F430CE89E11FCF882351F01092640134
:101770000E946722909361018093600182E0B3CF61
:101780008091640181110FC080916001909161018D
:101790000E947322883C910530F486E20E94201753
:1017A00086E20E94221882E0B5CFC93DECE5DE0753
:1017B00031F4F8018281882369F180E009C0CA3DD3
:1017C000FCE5DF0741F4F8018281882319F182E00A
:1017D0000E94072A1FC0C63DDC4509F059CEF8011A
:1017E0008281811177CF80916501811192CF8091A3
:1017F0006201909163010E947322883C910508F078
:1018000088CF80E20E94881888E20E94201788E230
:101810000E94221880E0DF91CF911F910F910895CF
:101820008F929F92AF92BF92CF92DF92EF92FF92F0
:101830000F931F936B017C0181E090E0A0E0B0E08A
:101840004C015D0104C0880C991CAA1CBB1C4A9564
:10185000D2F7AC01BD0104C0440F551F661F771FAE
:101860002A95D2F7482959296A297B2904C0880F6B
:10187000991FAA1FBB1F0A95D2F78A019B010C2151
:101880001D212E213F21401751076207730739F4AC
:10189000BC01CD016C297D298E299F290AC0809524
:1018A0009095A095B095BC01CD016C217D218E2134
:1018B0009F211F910F91FF90EF90DF90CF90BF90ED
:1018C000AF909F908F9008950F93382F262F60919F
:1018D000D7017091D8018091D9019091DA01042F3C
:1018E000432F0E94100C0F910C94991F0C944F06DB
:1018F000CF92DF92EF92FF92863030F4811105C0D3
:10190000909180009F7704C085E09091800090685E
:1019100090938000282F30E0AFEFBFEF0E947B3222
:1019200025E030E040E050E00E945332C9012C37FE
:1019300064E1360728F469E070E00E942B3229C088
:10194000DA01C9018A50974DAF4FBF4F6627782FF4
:10195000892F9A2F25EF38E241E050E00E94533260
:1019600069017A01CA01B9010E941B329B01AC01D5
:10197000C701B6010E941B32BB27A92F982F872FC2
:10198000009721E0A207B10511F0BC0102C06FEF82
:101990007FEF7093890060938800FF90EF90DF9055
:1019A000CF900895259A2D9882E88093800089E150
:1019B000809381008FEF9FEF909387008093860044
:1019C0000C9418270E94D20C0C94240908950C94AE
:1019D000E60C0C94E70C80E090E0089508952CE369
:1019E000829FC0011124FC0126E0729FE00DF11DD1
:1019F0001124E60FF11DEE0FFF1FE057FE4F8591FA
:101A000094910895880F991FFC01E857F64F85912E
:101A100094910895CF93DF930E94EF0C0E94E50EFE
:101A2000EC01811521E5920708F042C0811540E5DF
:101A3000940708F01CC1883E910500F5803E910591
:101A400008F0BFC1883A910570F4853A910508F015
:101A500099C08130910509F4B4C108F46BC10497B1
:101A600008F0AFC167C18D3B910508F496C0803C7A
:101A7000910508F45FC1805C9109E8C0C11580E35D
:101A8000D80780F4C11520E2D20708F0DDC0C03FBE
:101A9000D10508F44FC1CF3FD10511F008F091C135
:101AA000D0658FC1C11540E4D40708F0DDC0D2C0B5
:101AB000C11589E5D80740F5C11528E5D20708F01A
:101AC00023C1C11544E5D40778F4C11583E5D807CF
:101AD00008F0FFC0C11522E5D20708F0E4C0DC2FF2
:101AE000CC27C16FD06A6DC1C11545E5D40708F494
:101AF00006C1C11586E5D80708F01CC1CF71DD27E6
:101B0000DC2FCC27D0625DC1CB3B2CE5D20709F49A
:101B100008C1C0F4C93B8CE5D80709F4FCC008F043
:101B2000FDC0C1154AE5D40708F004C1CE0124E088
:101B3000969587952A95E1F78F70CF70C06ED0E0AB
:101B4000D06AE7C0CE3B8CE5D80709F4F0C060F45A
:101B5000CC3B4CE5D40709F4E7C0CD3BDC4509F0AC
:101B6000E9C0C0E0D2ED2DC1CE0190568115904262
:101B700008F0E0C08D2F8F710E94610FDD27D062C9
:101B80008F71C7C0853A910509F4D7C0863A91058F
:101B900009F0D6C0C2E8D0E414C1883A910509F42E
:101BA000D2C0893A910509F4D1C08A3A910509F465
:101BB000D0C08B3A910509F4CFC08C3A910509F455
:101BC000CEC08B3B910509F4CDC08C3B910509F447
:101BD000CCC08D3A910509F4CBC0803B910509F446
:101BE000CAC08E3A910509F4C9C08F3A910509F42B
:101BF000C8C0813B910509F4C7C0823B910509F437
:101C0000C6C0833B910509F4C5C0843B910509F426
:101C1000C4C0853B910509F4C3C0863B910509F416
:101C2000C2C0873B910509F4C1C0883B910509F406
:101C3000C0C0893B910509F4BFC08A3B910509F4F6
:101C4000BEC0C0E0D4E4BDC0CE019F700E94020DB2
:101C5000EC01B7C0CE019927D3FF03C0EC01D86CCB
:101C6000B0C0EC01D06CADC0DF70D06AAAC074E027
:101C7000969587957A95E1F7282F23703C2F33703E
:101C800081E090E002C0880F991F3A95E2F79C68C6
:101C9000922BCF70C695C69540E2C49FE0011124F7
:101CA000C82BD92B8EC0CE018370992721E030E05C
:101CB00002C0220F331F8A95E2F78C2F86958695F6
:101CC00040E2849FC0011124E901C82BD92BDC68B4
:101CD00078C0CE018370992721E030E002C0220F46
:101CE000331F8A95E2F78C2F8695869540E2849F74
:101CF000C0011124E901C82BD92BDA6862C0DC2F9E
:101D0000CC27C46FD06A5DC0DC2FCC27C06FD06AEF
:101D100058C0D82B56C0C0E0D4ED53C0C0E0D5EDBC
:101D200050C0C0E0D1ED4DC0C0E0D0ED4AC0C0E031
:101D3000D3ED47C0C0E0D0E044C0C1E8D0E441C02A
:101D4000C3E8D0E43EC0C2EED4E43BC0C9EED4E464
:101D500038C0CAEED4E435C0C5EBD4E432C0C6EB1B
:101D6000D4E42FC0C3EBD4E42CC0C4EBD4E429C02A
:101D7000C7EBD4E426C0CCECD4E423C0CDECD4E44F
:101D800020C0C3E8D5E41DC0CAE8D5E41AC0C2E942
:101D9000D5E417C0C4E9D5E414C0C1E2D6E411C04B
:101DA000C3E2D6E40EC0C4E2D6E40BC0C5E2D6E47A
:101DB00008C0C6E2D6E405C0C7E2D6E402C0CAE263
:101DC000D6E4CE01DF91CF9108958238910549F193
:101DD000B0F48133910509F459C048F48932910572
:101DE00009F44FC08A32910509F455C0089585332E
:101DF000910509F441C08933910599F00895833E16
:101E0000910531F138F4803E910591F0823E9105C3
:101E1000A9F00895863E910501F1873E910539F1BB
:101E200008952091330220FD3BC021FD39C0089563
:101E30008091330280FF34C089E341C08091330236
:101E400082FF30C08091330284FD2EC083EE37C004
:101E50008091330282FD26C0F5CF8091330283FF4B
:101E600025C08091330284FD1FC087EE28C0809179
:101E7000330283FD1BC0F5CF8091330285FD18C06E
:101E800019C08091330285FD15C012C080913302C4
:101E900086FD12C013C08091330286FD0FC00CC0B6
:101EA00080EE0DC082EE0BC080E009C086EE07C058
:101EB00089E205C085E303C08AE201C081E390E0C6
:101EC00008959091330292FF0DC0282F2871283079
:101ED00019F4877F846006C0282F2471243011F400
:101EE0008B7F886093FF0DC0282F2871283119F44B
:101EF000877E846106C0282F2471243111F48B7EE3
:101F0000886194FD877E089508950F931F93CF9362
:101F1000FB012281211102C0C1E041C08C01C091AE
:101F20007301C11125C086319C45B1F70E94840F11
:101F300081E0809373010E946722909372018093E5
:101F4000710110926601109268011092670110925F
:101F50006A011092690110926C0110926B0110924B
:101F60006E0110926D011092700110926F0117C0F6
:101F700080917101909172010E9473228C32914084
:101F800058F690916601E92FF0E0EE0FFF1FE95936
:101F9000FE4F118300839F5F90936601C0E08C2FFA
:101FA000CF911F910F910895EF92FF920F931F937E
:101FB000CF93DF93E901662309F44BC0242F30E06F
:101FC000EFEFF0E0E61BF109B901E69F9001E79F12
:101FD000300DF69F300D1124232F8B01031B1109A7
:101FE0005CE3E52EF12CB7010E942B32FB01BC0112
:101FF000069FC001079F900D169F900D1124B701F9
:102000000E942B32E230F105B1F040F4309779F0C4
:10201000319711F5832F242F461B21C0E430F105A1
:10202000A1F068F03597C1F4842F861B18C0832F68
:10203000262F230F14C0862F830FE42F03C0E42F15
:10204000E61B842F432F2E2F0AC0842F462F430FC9
:1020500006C0842F242F03C080E020E040E0E42F5E
:10206000F0E0EC55F64F4491E22FF0E0EC55F64FDE
:102070009491E82FF0E0EC55F64FE4914983988372
:10208000EA83DF91CF911F910F91FF90EF90089518
:1020900088E090E00C949D32AB01BC0188E090E0B8
:1020A0000C94BB32E4E0F2E083E0808310920502FE
:1020B0008FEF828383831482608171818281938117
:1020C0000C944C106091040260FF06C066956F731B
:1020D00070E080E090E0089560E070E0CB0108954A
:1020E0008091080290E001968430910514F083E01D
:1020F00090E0809308026091040270910502809143
:102100000602909107020C944C108091080290E016
:10211000019797FF02C080E090E08430910514F0B1
:1021200083E090E0809308026091040270910502C0
:1021300080910602909107020C944C108091040249
:1021400080FF06C06CE070E089E092E00C94D91545
:10215000E9E0F2E0118210821282339682E0ED32E1
:10216000F807C1F7EFCF9091040290FF0CC0E9E0AF
:10217000F2E0818360834283339692E0ED32F90787
:10218000C1F70C949E100895CF93DF9300D01F9257
:10219000CDB7DEB72091040220FF0AC09E012F5F59
:1021A0003F4F0E94D40F4B8169818A810E94B310F6
:1021B0000F900F900F90DF91CF9108955F926F92E3
:1021C0007F928F929F92AF92BF92CF92DF92EF92C7
:1021D000FF920F931F93CF93DF9300D01F92CDB741
:1021E000DEB78C01E62EF42E522E8091040280FF81
:1021F00089C0982F9E77923061F49E012F5F3F4FE8
:10220000C8010E94D40F4B8169818A810E94B3105A
:1022100059C0E82FE695EF739EE39E0F9F739430AD
:1022200018F4F09007024EC09AE39E0F9F73993006
:1022300068F4881F8827881F90910502292F220F94
:10224000022F082B97FB112710F93CC087E28E0F55
:102250008F738A30B8F5F0E07997E0FD02C021E095
:1022600001C02FEFEE7FE657F64F859194916CE019
:1022700070E00E942B3226034001279F900C11240E
:10228000580188E9A81A8EEFB80A89E0C82E82E0C2
:10229000D82E98E6692E77247394C501B3010E9465
:1022A0002B3296014F2D6E2D0E94D40FA80CB91C15
:1022B00083E0C80ED11C8DE2C81682E0D80669F70B
:1022C0000E949E108091040200FB87F98093040213
:1022D000902F9695809105028078892B10FB87F9C5
:1022E00080930502E0920602F0920702552051F019
:1022F000609104027091050280910602909107029C
:102300000E944C100F900F900F90DF91CF911F9172
:102310000F91FF90EF90DF90CF90BF90AF909F9084
:102320008F907F906F905F90089521E00C94DE1065
:10233000E4E0F2E02081221F2227221F30910502D3
:10234000432F440F842F822B37FB992790F908964F
:1023500068E671E00E943F32438162810C949511DE
:1023600020910402221F2227221F30910502432FB1
:10237000440F842F822B37FB992790F988309105E1
:102380001CF4805A9E4F05C0089768E671E00E94D1
:102390003F3240910702609106020C9495116091C2
:1023A0000602862F90E0883F910514F4685F01C013
:1023B0006FEF80910402881F8827881F9091050283
:1023C000292F220F97FB992790F940910702822B22
:1023D0000C94951160910602862F90E0089714F0F6
:1023E000685001C060E080910402881F8827881F20
:1023F00090910502292F220F97FB992790F9409180
:102400000702822B0C94951140910702842F90E0D3
:10241000883F910514F4485F01C04FEF809104029A
:10242000881F8827881F90910502292F220F97FB6C
:10243000992790F960910602822B0C949511409196
:102440000702842F90E0089714F0485001C040E044
:1024500080910402881F8827881F90910502292FE8
:10246000220F97FB992790F960910602822B0C941A
:10247000951120E00C94DE109091040290FF46C06C
:102480009178811102C0926007C0843210F0966486
:1024900003C08F73880F982B90930402662351F02A
:1024A00060910402709105028091060290910702EA
:1024B0000E944C1080910402382F3E77323019F47C
:1024C00010928D0112C0982F96959F732EE3290FBD
:1024D0002F73273110F0363421F491E090938D0161
:1024E00004C0995D9F739A3058F3881F8827881F0E
:1024F00090910502292F220F97FB992790F940917F
:10250000070260910602822B0C943912089561E053
:102510000C943C128091040286958F738F5F8432F5
:1025200008F081E00C9487128091040286958F73E5
:10253000815009F483E20C948712E4E0F2E0808198
:102540008160808386958F730C94871260E00C9471
:102550003C128091EC0181608093EC010E9471211A
:10256000811104C00E944B210E9452100E94481009
:102570006093040270930502809306029093070211
:102580006E7761F40E9452100E944810609304021A
:1025900070930502809306029093070281E0809376
:1025A0008D018091040280FF04C086958F730C9486
:1025B000A6120895E4E0F2E080818E7F808360813E
:1025C0007181828193810E944C1010928D012FEFB6
:1025D00080E792E0215080409040E1F700C0000089
:1025E0000C949E108091040280FD0C94DA120C94DD
:1025F0009D12CF93C82F80918B0190918C010E94E6
:102600007322EC2FF0E0E056F64FE491F0E08E17E5
:102610009F0708F443C00E94672290938C01809327
:102620008B0160918A0170E080E090E00E941C3094
:1026300020E030E04FE753E40E943F2F2BED3FE0D6
:1026400049E450E40E9445310E94B2310E94B92F02
:102650002BE43AE34EE25FE30E94D22E20EF3BEF01
:1026600048ED52E40E9445310E94EB2F462F8091A5
:102670000402881F8827881F90910502292F220FA6
:1026800097FB992790F960910602822B0E94C41053
:1026900080918A0190E0019680938A01CF910895FC
:1026A000CF93C82F80918801909189010E94732255
:1026B000EC2FF0E0E356F64FE491F0E08E179F0721
:1026C000E8F00E94672290938901809388014091ED
:1026D00007026091060280918601909187010E9415
:1026E000C4108091860190918701019668E671E09F
:1026F0000E942B329093870180938601CF91089599
:10270000CF92DF92FF920F931F93CF93DF93F82E18
:1027100080918401909185010E947322EF2DE695AE
:10272000F0E0E656F64FE491F0E08E179F07B8F11F
:102730000E946722909385018093840109E012E052
:10274000C0E0D0E088E6C82EDD24D39480918201D9
:10275000909183018C0F9D1FB6010E942B3298012E
:1027600040910702609106020E94D40F6E960D5FA1
:102770001F4FC83681E0D80749F70E949E1080910C
:10278000820190918301F0FE05C00196BE010E9476
:102790002B3201C001979093830180938201DF91D6
:1027A000CF911F910F91FF90DF90CF900895CF921E
:1027B000DF92EF92FF920F931F93CF93DF93C82F77
:1027C00080FF02C01FEF01C011E080918001909155
:1027D00081010E947322C695EC2FF0E0E956F64F76
:1027E000E491F0E08E179F0708F45BC00E94672217
:1027F000909381018093800129E0E22E22E0F22E65
:10280000C0E0D0E0F70111821082128294E0C92E5C
:10281000D12C00E080917F01800F87FD845F082E1E
:10282000000C990BC817D907E9F4809107028C9D19
:10283000A0018D9D500D11245595479555954795AF
:1028400080910402881F8827881F90910502592FC4
:10285000550F97FB992790F9970160910602852BF8
:102860000E94D40F010FF1E0CF1AD10899F62196FA
:1028700083E0E80EF11CCC30D10521F60E949E10B9
:1028800080917F01113031F4811102C08BE007C0CB
:10289000815005C090E00196BE010E943F328093B6
:1028A0007F01DF91CF911F910F91FF90EF90DF900B
:1028B000CF9008950F931F93CF93DF93C82F8091EC
:1028C0007D0190917E010E947322EC2FF0E0EC5686
:1028D000F64FE491F0E08E179F0708F456C00E946F
:1028E000672290937E0180937D01C9E0D2E0FE01D2
:1028F000118210821282339682E0ED32F807C1F71E
:1029000000E010E080917C01082E000C990B081764
:102910001907ECF080910201082E000C990B80172A
:102920009107ACF080910402881F8827881F90913E
:102930000502592F550F97FB992790F99E01409159
:10294000070260910602852B0E94D40F03C01982F2
:1029500018821A820F5F1F4F23960C30110591F6D3
:102960000E949E108091010190917C01980F90939C
:102970007C0120910201280F20930201121614F409
:102980009B301CF0819580930101DF91CF911F91C5
:102990000F910895EF92FF920F931F93CF93DF93C0
:1029A00080917A0190917B010E947322883E93402E
:1029B000D0F10E94672290937B0180937A01C091AD
:1029C0007801D09179012196C170DD27D0937901EA
:1029D000C093780189E0E82E82E0F82E10E008E745
:1029E000812F8695FE01E80FF11DCF018170992797
:1029F00097014091070260910602FC010E9FC00101
:102A00000F9F900D11240E94D40F1F5FF3E0EF0E73
:102A1000F11C1C3029F7DF91CF911F910F91FF908E
:102A2000EF900C949E10DF91CF911F910F91FF902A
:102A3000EF900895CF93DF9300D01F92CDB7DEB70C
:102A400080917601909177010E947322E8E8F9E085
:102A50002591349182179307C0F1809175018111FE
:102A60000CC09E012F5F3F4F4FEF6FEF80E090E073
:102A70000E94D40F8A81809375010E9467229093EF
:102A800077018093760180917401813051F028F0B4
:102A9000823061F4409175010AC08091750140E077
:102AA00007C06091750140E080E003C040E080E035
:102AB00060E00E94B3108091740190E0019663E0A1
:102AC00070E00E943F32809374010F900F900F903E
:102AD000DF91CF91089580918D018823B9F1909174
:102AE0000402892F86958F732EE3280F2F732430CD
:102AF00018F482500C94F9122AE3280F2F73233014
:102B000018F486500C94501327E3280F2F732630A7
:102B100018F489500C94801321E3280F2F7326306A
:102B200018F48F500C94D7132BE2280F2F732330F7
:102B300018F485510C945A14892F8E77803311F430
:102B40000C94CA14863411F40C941A1508952BB100
:102B5000342F309523233BB1432B3FB7F894FC012E
:102B6000680F791FE617F70789F0819198E04BB954
:102B7000000000C087FF2BB9880F000000C000C014
:102B800000C02BB900C09A9591F7ECCF3FBF0895D4
:102B90002AB1242B2AB99B01220F331F620F731F06
:102BA0000E94A71587EC90E00197F1F700C00000A4
:102BB000089548E00C94C815909393018093920176
:102BC0000895E0919201F0919301309721F00190E6
:102BD000F081E02D099480E00895E0919201F09158
:102BE0009301309721F00280F381E02D099408953C
:102BF000E0919201F0919301309721F00480F581EA
:102C0000E02D0994089520919001309191012817A9
:102C1000390771F09093910180939001E0919201B6
:102C2000F0919301309721F00680F781E02D09940F
:102C3000089520918E0130918F012817390771F086
:102C400090938F0180938E01E0919201F091930116
:102C5000309721F00084F185E02D099408950C94BB
:102C6000120881E008950E945E2285B7806885BFC2
:102C700085B7806885BF0E9451060E94D4220E94B9
:102C800018270C94A912BF92CF92DF92EF92FF9275
:102C90000F931F93CF93DF93CDB7DEB72A970FB66D
:102CA000F894DEBF0FBECDBF0E94A1070E9431166F
:102CB000811111C08FEF89838A831B820E94672252
:102CC0008160782F9D838C8349815A816B818D81AE
:102CD0000E94EC1654C085E9C82E81E0D82E00E091
:102CE00010E0B02E802F0E94E807E82EF601219117
:102CF0006F01F82EF22631F40F5F1F4F0A301105D5
:102D000081F7D8CF8091EC0181FD0E94EE0780E031
:102D100090E02F2D30E0482FB901082E02C07595A4
:102D200067950A94E2F760FF25C08E83BF8281E039
:102D300090E06C0102C0CC0CDD1C4A95E2F72E2D10
:102D400030E02C213D21232B09F480E088870E946C
:102D500067228160782F9A8789874E815F81688595
:102D60008A850E94EC16F801EB56FE4F80818C2577
:102D7000808305C001968630910569F6BDCF0E941B
:102D800067240E94E115909194018917A9F00E948F
:102D9000E115809394012A960FB6F894DEBF0FBE1A
:102DA000CDBFDF91CF911F910F91FF90EF90DF90FA
:102DB000CF90BF900C94E90C2A960FB6F894DEBF22
:102DC0000FBECDBFDF91CF911F910F91FF90EF907C
:102DD000DF90CF90BF900895CF93DF93CDB7DEB74C
:102DE0002B970FB6F894DEBF0FBECDBF4F83588729
:102DF00069877A878B87DE01119686E0FD01119243
:102E00008A95E9F785E0FE01379601900D928A9543
:102E1000E1F749815A816B817C818D819E810E947D
:102E2000241E2B960FB6F894DEBF0FBECDBFDF91E8
:102E3000CF910895FC01808191810E949C2008958A
:102E4000CF93882309F4FCC0C82F8238C1F40E94B4
:102E5000E11581FDF5C069E38091030190910401C2
:102E60000E94CF210E94DC202FEF81EE94E02150C0
:102E700080409040E1F700C0000069E319C083384A
:102E800001F50E94E11580FDDBC063E5809103013F
:102E9000909104010E94CF210E94DC202FEF81EE4F
:102EA00094E0215080409040E1F700C0000063E5CD
:102EB00080910301909104010E94D121CF910C9443
:102EC000DC208438C1F40E94E11582FDB9C067E4BA
:102ED00080910301909104010E94CF210E94DC2087
:102EE0002FEF81EE94E0215080409040E1F700C048
:102EF000000067E4DDCF8CEF8C0F813A68F48C2FF3
:102F00000E94812681119CC06C2F809103019091B9
:102F100004010E94CF21D2CF80E28C0F883048F488
:102F2000C77081E001C0880FCA95EAF70E9412219C
:102F3000C5CF8BE58C0F833078F4C53A29F0C63ABB
:102F400031F083E890E005C081E890E002C082E8BB
:102F500090E0CF910C94031688E58C0F853108F032
:102F60006FC0C83A61F1C93A69F1CA3A71F1CB3A16
:102F700079F1CC3A81F1CB3B89F1CC3B91F1CD3A5F
:102F800099F1C03BA1F1CE3AA9F1CF3AB1F1C13BE1
:102F9000B9F1C23BC1F1C33BC9F1C43BD1F1C53B5F
:102FA000D9F1C63BE1F1C73BE9F1C83BF1F1C93BBF
:102FB000F9F1CA3B09F43FC080E090E03EC082EEE8
:102FC00090E03BC089EE90E038C08AEE90E035C0DA
:102FD00085EB90E032C086EB90E02FC083EB90E071
:102FE0002CC084EB90E029C087EB90E026C08CECED
:102FF00090E023C08DEC90E020C083E891E01DC0FC
:103000008AE891E01AC082E991E017C084E991E072
:1030100014C081E292E011C083E292E00EC084E22B
:1030200092E00BC085E292E008C086E292E005C023
:1030300087E292E002C08AE292E0CF910C941916E6
:10304000CF910895882309F45BC0682F823879F402
:103050000E94E11581FF54C069E3809103019091C2
:1030600004010E94CF210E94DC2069E310C0833854
:10307000B1F40E94E11580FF43C063E58091030134
:10308000909104010E94CF210E94DC2063E5809191
:103090000301909104010E94D1210C94DC2084381A
:1030A00079F40E94E11582FF2BC067E4809103014F
:1030B000909104010E94CF210E94DC2067E4E7CFB9
:1030C0008CEF860F813A18F380E2860F883048F43F
:1030D000677081E001C0880F6A95EAF70E941821A5
:1030E000DCCF8BE5860F833020F480E090E00C94F9
:1030F0000316685A653120F480E090E00C941916AC
:103100000895882321F00E9412210C94DC20089558
:10311000882321F00E9418210C94DC2008958F92BE
:103120009F92AF92BF92DF92EF92FF920F931F9305
:10313000CF93DF937C01D62FC72FFC010581029529
:103140000F70128111110E942F210E94D520882317
:1031500079F0112369F080E28D0F883048F082E029
:103160000E94BE200E94D52091E0D82ED92601C011
:10317000D12CBC2EB2948FE0B8228B2D90E0FC01B4
:10318000E859FF4F0C9475328C2F807FCF708823C5
:1031900011F0C295C07F112399F0CC2309F4C4C16A
:1031A00080E28D0F883010F0D11104C08C2F0E9466
:1031B000122103C08C2F0E9422210E94DC20B4C166
:1031C0008D2F0E942218CC2309F4F4C180E28D0FC8
:1031D000883010F0D11104C08C2F0E94182103C038
:1031E0008C2F0E9428210E94DC20E4C18C2F807F3C
:1031F000CF70803211F0C295C07FDD2319F0D1303D
:10320000C9F022C0112371F0002341F0013031F4E4
:103210000E9448218C2B0E944221CCC10E9448214F
:103220008C2B3AC1002319F0013009F4C3C10E946C
:10323000452118C0112321F0063008F0BBC10EC093
:10324000053008F0B7C10EC0112351F0002331F052
:10325000F701858180FF68C18F7085838C2F1CC129
:10326000011173C18C2F1EC18C2F8695869583709A
:1032700019F0813061F09EC1112321F08D2F9C2F18
:10328000937002C080E090E00E940316A0C1112359
:1032900021F08D2F9C2F937002C080E090E00E945F
:1032A000191695C11123F9F0D53F51F0D63F71F0B1
:1032B000D43FA9F480912D0290912E0281600BC021
:1032C00080912D0290912E02826005C080912D0286
:1032D00090912E02846090932E0280932D028D2F68
:1032E0000E946F231EC0D53F51F0D63F71F0D43FEE
:1032F000A9F480912D0290912E028E7F0BC08091B7
:103300002D0290912E028D7F05C080912D0290910B
:103310002E028B7F90932E0280932D028D2F0E9480
:10332000D7230E945C2453C18C2F837009F04CC0BA
:10333000111149C12D2F229526952770220F220F9A
:103340006D2F6F70862F90E0A0E0B0E04C015D0122
:10335000022E04C0880C991CAA1CBB1C0A94D2F72C
:10336000D4FF12C08FE090E0A0E0B0E004C0880F6E
:10337000991FAA1FBB1F2A95D2F7BC01CD016095EA
:1033800070958095909503C060E070E0CB01C69584
:10339000C695C370C23051F080F4682979298A2912
:1033A0009B29C13071F00E94731F0DC168297929D2
:1033B0008A299B290E94851F06C10E94731FC5018F
:1033C000B4010E94611FFFC0112319F08C2F81707E
:1033D00001C08695882309F4F6C02D2F22952695E5
:1033E0002770220F220F6D2F6F70862F90E0A0E0C4
:1033F000B0E04C015D01022E04C0880C991CAA1C8F
:10340000BB1C0A94D2F7D4FF12C08FE090E0A0E07A
:10341000B0E004C0880F991FAA1FBB1F2A95D2F7DE
:10342000BC01CD01609570958095909503C060E0DA
:1034300070E0CB01C695C695C370C23051F080F4E0
:10344000682979298A299B29C13071F00E94382086
:10345000BAC0682979298A299B290E944A20B3C0C9
:103460000E943820C501B4010E942620ACC08D2FD7
:1034700090E0FC01E05EF109E531F10508F050C093
:10348000E858FF4F0C947532DF708C2F8F71112329
:1034900031F00E94BF1F8D2F0E9481188BC00E94A7
:1034A000E01F8D2F0E94881885C0112341F0053040
:1034B00008F080C08C2F8F710E9405207BC00630E1
:1034C00008F078C0F7CF112339F08C2F8F710E944C
:1034D000BF1F70C01123C9F38C2F8F710E94E01F92
:1034E00069C0112329F08C2F8F710E94AA1F62C01E
:1034F0000E94A51F5FC0112349F0CF718C2F0E943D
:10350000BF1F63E08C2F0E94B52054C081E00E9451
:10351000BE20023008F44EC082E00E94BE204AC0A5
:10352000112331F0002389F28D2F0E94201742C011
:10353000002391F2D93349F4FFEF27EE83E0F150F5
:1035400020408040E1F700C000008D2F0E9422182B
:1035500031C04C2F4F706D2FC7010E94EB0C0E94A1
:10356000D21E35C0111133C0CF70C23091F038F483
:10357000CC2361F0C130F1F40E94522728C0C4303E
:1035800071F050F0C530B1F480E00AC00E943527D8
:103590001EC00E946E271BC00E94882718C085E0AD
:1035A0000E94AB2714C04C2F4F706D2FC7010E9493
:1035B000EE0C0DC098E0B91631F0B91640F086EF68
:1035C0008B0D823020F40E94E1150E94E90CDD2071
:1035D000E1F00E94B12080FD18C0F70112820E9424
:1035E000AB200E94BF1FC7010E94111B0E94AB208D
:1035F000DF91CF911F910F91FF90EF90DF90BF90DF
:10360000AF909F908F900C94E01FDF91CF911F910E
:103610000F91FF90EF90DF90BF90AF909F908F90B1
:1036200008950F931F93CF93DF93EC0198818981C5
:103630002B813C81232B31F08F3F31F481E09F3F80
:1036400019F403C081E001C080E080FD13C0CE0109
:103650000E948A09882371F0688179818A810E9499
:10366000A7208C010E945C200E944F1FB801CE0150
:103670000E948F18DF91CF911F910F9108950E94A2
:103680002F210E943F2180910301909104010E940B
:10369000D3210E94DC200E94FE240E945C2480E052
:1036A00090E00E94031680E090E00C9419160E94AE
:1036B0001F210C943F1B0E949C20E92FE295EF7084
:1036C0004E2F50E0FA013297EE30F105B0F4E35797
:1036D000FF4F0C947532803F91F018F4803E68F4EF
:1036E0000EC0843F51F40BC0803E48F0813F29F466
:1036F00006C093FB882780F9089580E0089581E053
:103700000895CF93DF9300D000D01F92CDB7DEB7DE
:103710000F900F900F900F900F90DF91CF91089521
:10372000CF93DF9300D000D000D0CDB7DEB7269680
:103730000FB6F894DEBF0FBECDBFDF91CF910895D5
:103740001F93CF93DF93C0919F0116E08091A0015A
:10375000C81799F0D0E01C9FF0011D9FF00D1124B7
:10376000EF55FE4F40815181628173818481958143
:103770000E94901B2196C770E9CFDF91CF911F91D6
:1037800008954091D1015091D2016091D30170917F
:10379000D4018091D5019091D6010C94901BCF93C8
:1037A0008091D60182958F7009F05FC08091D3011E
:1037B000882309F45AC080919F01B091A0017091B3
:1037C000D101A091D2014091D4015091D50191E055
:1037D0007F3F09F090E0692FC6E08B1709F445C0E0
:1037E0004115510521F0AF3F21F020E003C021E059
:1037F00001C0262F90E020FD35C0C89FF001C99F71
:10380000F00D1124EF55FE4F21812A132BC020818A
:10381000271328C02281211125C023813481241738
:10382000350710F421503109241B350B283C310594
:10383000C8F42091D6012F7020612093D60126E094
:10384000289FF001299FF00D1124EA55FE4F808139
:103850008F708061808381ED91E00E94111BCF9178
:103860000C94A01B01968770B8CFCF910895AF92AA
:10387000BF92CF92DF92EF92FF920F931F93CF935D
:10388000DF93CDB7DEB761970FB6F894DEBF0FBEFA
:10389000CDBF8C0185E0F801DE011D9601900D92EF
:1038A0008A95E1F7D8014C9111965C911197129687
:1038B000EC903091D1016091D2018091D40190912E
:1038C000D501009731F06F3F31F421E03F3F19F40B
:1038D00003C021E001C020E0B22FB170BB2E20FD5B
:1038E00060C1F801C380D480A090D301AA2009F45C
:1038F000EEC02091D601C816D90628F0D601A81B23
:10390000B90BCD0104C0809590958C0D9D1DFF24B1
:10391000F394883C910580F0F12C207F09F09CC045
:103920007C2DD98AC88A6E2D89890E94811B81EDE0
:1039300091E00E94111B2DC1822F807F09F054C09D
:10394000561314C0431312C0FE2CE1100FC02F7089
:1039500020612093D6010E94C11B81ED91E00E945D
:10396000111B8091D601F80185835CC1CD2831F00F
:103970005F3F31F481E04F3F19F403C081E001C0A3
:1039800080E080FD03C081E08E2502C080E090E0F1
:10399000F82FF170FF2E80FF1CC080919F012091B5
:1039A000A00136E0821709F41AC190E0389FF001B7
:1039B000399FF00D1124EF55FE4F6181561306C05B
:1039C0006081461303C06281E61203C001968770CE
:1039D000E9CFFE2CEE2009F425C18091D60181604B
:1039E0008093D601F12C1EC1561309C0431307C0A2
:1039F000E11005C08091D601F8018583A4C04D87F0
:103A00005E878D859E850E945B1B882379F1EE2061
:103A100069F12091D601822F82958F7090E00297F4
:103A200074F08091D1019091D20198878F8319868B
:103A3000DB86CA862C87CE0107960E94111B86E082
:103A4000F801A1EDB1E001900D928A95E1F70E9495
:103A5000CF1B0E94C11B0DC0561771F04D875E87AA
:103A60008D859E850E945B1B81111AC0C8010E9432
:103A7000111BFF24F394D6C04313F0CFE110EECF17
:103A80008091D601F8018583C8010E94111B86E050
:103A9000E1EDF1E0DF011D928A95E9F7FA2CC2C051
:103AA000EE2021F32091D601822F82958F7090E035
:103AB00002972CF28091D1019091D2019A8389834F
:103AC0001B82DD82CC822E83CE010196B6CFC81632
:103AD000D90628F0F601E81BF90BCF0104C0809548
:103AE00090958C0D9D1D883C910548F0F12C7C2D06
:103AF000D98AC88A6E2D89890E94811B4AC0FE2CF2
:103B0000EE2009F4B3CF561333C0431331C02091D4
:103B1000D60120FD24C0822F82958F70482F50E05F
:103B200041155105E1F0D80115962C9315974F30AA
:103B3000510549F08F5F982F9295907F822F8F705B
:103B4000892B15968C93C8010E94111B86E0F80101
:103B5000A1EDB1E001900D928A95E1F73DC086E0BC
:103B6000F801A1EDB1E001900D928A95E1F75AC0FC
:103B70004D875E878D859E850E945B1B81115FCF7F
:103B80008091D60181608093D601C8010E94111BEB
:103B900049C0E1EDF1E086E0DF011D928A95E9F789
:103BA0001BC0EE2009F462CF4D875E878D859E8510
:103BB0000E945B1BF82E882309F458CF86E0F80199
:103BC000A1EDB1E001900D928A95E1F781ED91E0D0
:103BD0000E941A170E94CF1B0E94C11B23C04D8751
:103BE0005E878D859E850E949C20292F22952F70AF
:103BF000223028F49F7039F0811105C00BC02430A9
:103C000028F49F7049F4805E883020F0C8010E943B
:103C1000111BBF2CFB2C06C0D80115969C91907FE0
:103C200091F7F8CF8F2D61960FB6F894DEBF0FBED7
:103C3000CDBFDF91CF911F910F91FF90EF90DF905B
:103C4000CF90BF90AF9008951F93CF93DF93CDB7E0
:103C5000DEB72C970FB6F894DEBF0FBECDBF4F83F3
:103C6000588769877A878B879C87CE0107960E9441
:103C7000371C8823D1F09F8188852A853B85232B9B
:103C800031F08F3F31F481E09F3F19F403C081E0B0
:103C900001C080E080FD47C04F81588569857A85E5
:103CA0008B859C850E94901B3EC086E0FE01379666
:103CB000DE01119601900D928A95E1F7FF81E8856A
:103CC0006A857B856115710531F0EF3F31F481E044
:103CD000FF3F19F403C081E001C080E080FD23C0F4
:103CE0002091A00130E0C901019687709927409189
:103CF0009F0150E084179507F1F1F983EA837D83F2
:103D00006C8396E0929FD001939FB00D1124AF5524
:103D1000BE4FFE01319601900D929A95E1F7809386
:103D2000A0010E94A01B16E080919F019091A0012C
:103D3000891771F1189FC00111248F559E4F0E9461
:103D4000371C882329F1E0919F011E9FF001112467
:103D5000EF55FE4F4081518162817381848195814D
:103D60000E94901B80919F0190E001968770992797
:103D700080939F01D9CF0E94571B1092A0011092EF
:103D80009F01E1EDF1E086E0DF011D928A95E9F700
:103D90002C960FB6F894DEBF0FBECDBFDF91CF914A
:103DA0001F910895EF92FF920F931F93CF93DF938C
:103DB0008C01892B09F46CC0F12CEE24E394E8010A
:103DC0002196F8018491843740F4843008F051C082
:103DD000813081F0823019F15BC0853709F444C02D
:103DE000A8F19CE7980F903708F052C08F770E9497
:103DF000221841C00E5F1F4FFE01849190E2980F80
:103E0000983050F48770FE2D01C0FF0F8A95EAF7B5
:103E10008F2F0E94322114C00E9420172DC00E5FE8
:103E20001F4FFE01849190E2980F983060F48770E4
:103E3000FE2D01C0FF0F8A95EAF78F2F0E943821CF
:103E40000E94DC2019C00E94221816C00E5F1F4F6E
:103E5000FE01C491CC2381F08FE99FE00197F1F737
:103E600000C00000C150F6CF0E5F1F4FFE01F4905E
:103E700003C00E9420178E018F2D882309F49FCF45
:103E8000EFE9FFE03197F1F700C000008150F5CF76
:103E9000DF91CF911F910F91FF90EF9008950895BA
:103EA00008950C94501F0E94511F6093DB01709382
:103EB000DC018093DD019093DE010C943F1B0C9498
:103EC000531F0F931F930091DB011091DC01209190
:103ED000DD013091DE01602B712B822B932B1F9122
:103EE0000F910C94531F0F931F930091DB011091BE
:103EF000DC012091DD013091DE01602371238223FA
:103F000093231F910F910C94531F0F931F930091B4
:103F1000DB011091DC012091DD013091DE01602791
:103F20007127822793271F910F910C94531F0C9494
:103F3000501F0E94971F6093D7017093D801809300
:103F4000D9019093DA010C943F1B60E070E0CB0143
:103F50000C94991F0F931F9341E050E060E070E0D4
:103F60008A019B0104C0000F111F221F331F8A9575
:103F7000D2F7C901B8011F910F910C94991F0F93AB
:103F80001F9341E050E060E070E004C0440F551F13
:103F9000661F771F8A95D2F78091D7019091D8013B
:103FA000A091D901B091DA018A019B01082B192B4C
:103FB0002A2B3B2BC901B8011F910F910C94991F1B
:103FC0000F931F9341E050E060E070E004C0440FA5
:103FD000551F661F771F8A95D2F7409550956095BB
:103FE00070958091D7019091D801A091D901B0919D
:103FF000DA018A019B01082319232A233B23C901E3
:10400000B8011F910F910C94991F0F931F9341E0DA
:1040100050E060E070E004C0440F551F661F771F3A
:104020008A95D2F78091D7019091D801A091D901BA
:10403000B091DA018A019B01082719272A273B271B
:10404000C901B8011F910F910C94991F0F931F93F1
:104050000091D7011091D8012091D9013091DA0156
:10406000602B712B822B932B1F910F910C94991F16
:104070000F931F930091D7011091D8012091D9017E
:104080003091DA0160237123822393231F910F91D2
:104090000C94991F0F931F930091D7011091D80191
:1040A0002091D9013091DA01602771278227932767
:1040B0001F910F910C94991F0895CF92DF92EF9268
:1040C000FF920F931F93CF93DF938C01C090D70182
:1040D000D090D801E090D901F090DA018091DB0115
:1040E0009091DC01A091DD01B091DE01C82AD92AAE
:1040F000EA2AFB2ACFE1D0E0D701C6010C2E04C08A
:10410000B695A795979587950A94D2F780FD04C038
:10411000219790F780E007C0B8018C2F0E940A0D0C
:104120000197B1F38C2FDF91CF911F910F91FF90E9
:10413000EF90DF90CF900895CF93DF93EC010E9432
:104140005D20BE010E940A0DDF91CF910895CB0141
:104150000E949C2008958091DF0185958595859525
:1041600008958091DF018770089598E0899F9001FC
:104170001124262B2093DF010C94BF1F2091DF0117
:10418000809582238093DF01982F977069F430E047
:10419000482F082E000C550B2417350729F085955C
:1041A000859585950C94E01F08959091DF01977097
:1041B00081E009F480E00895E0910301F0910401A9
:1041C0008091EB018083E0910301F09104019081E3
:1041D0008091EA01892B8083E0910301F091040131
:1041E00090818091E901892B80838091E00188236F
:1041F00081F0E0910301F09104019081892B80838B
:1042000080910301909104010E949B2181111092E1
:10421000E00180910301909104010C94ED158091CF
:10422000EB0108959091EB01892B8093EB010895A8
:1042300080959091EB0189238093EB010895109272
:10424000EB0108959091EA01892B8093EA0108958A
:1042500080959091EA0189238093EA010895109254
:10426000EA0108959091E901892B8093E90108956D
:1042700080959091E90189238093E9010895109236
:10428000E90108958093E00108951092E0010895F6
:104290008091E00108956DEE7EEF80E090E00E9455
:1042A000C73260E082E090E00E94A93260E083E0E3
:1042B00090E00E94A93260E084E090E00E94A93280
:1042C00060E085E090E00E94A93260E086E090E046
:1042D0000E94A93240E050E0BA0188E090E00C94DE
:1042E000BB3280E090E00E94A33221E08D3E9E4FE1
:1042F00009F020E0822F089582E090E00C9495323E
:1043000083E090E00C949532682F83E090E00C9469
:10431000A93284E090E00C949532682F84E090E01C
:104320000C94A93286E090E00C949532682F86E0D8
:1043300090E00C94A932FC0131969C01285F3F4F1C
:1043400080E0919191118F5FE217F307D1F7089503
:104350009C01FC0132969FEF80E04191461789F065
:104360009F3F19F4411101C0982F8F5F8630A9F744
:104370009F3F39F0F901E90FF11D97FDFA9562832E
:10438000089508959C012A5F3F4FFC014281461326
:1043900001C01282019682179307B9F708950C9411
:1043A000A8210C94C221FC01319608961192E817BD
:1043B000F907E1F7089508950C94DB210C94DB21B3
:1043C000CF930E94DE210E94A1070E94DC21C0E061
:1043D0008C2F0E94E807811104C0CF5FCA30C1F75B
:1043E00001C081E0CF9108950C94DB210C94F4215D
:1043F00080913A02843061F11092ED0120E488E16D
:1044000090E00FB6F894A895809360000FBE2093BB
:10441000600080E00E94780C80E00E94E90C0E941D
:10442000F62183B7817F846083BF83B7816083BFB8
:104430007894889583B78E7F83BF0FB6F894A8953C
:1044400080916000886180936000109260000FBED0
:1044500008950C94DB210E94571B0E9418270E948C
:10446000E1150E94E90C0C9429221F920F920FB6BD
:104470000F9211248F939F93AF93BF938091ED017F
:10448000811113C080912F0290913002A0913102CE
:10449000B09132024196A11DB11D80932F029093DD
:1044A0003002A0933102B0933202BF91AF919F913D
:1044B0008F910F900FBE0F901F90189582E084BDD2
:1044C00093E095BD9AEF97BD80936E0008952FB746
:1044D000F89480912F0290913002A0913102B09116
:1044E00032022FBF0895CF92DF92EF92FF920F9387
:1044F0001F932FB7F89440912F0250913002609192
:104500003102709132022FBF6A017B01EE24FF2439
:104510008C0120E030E0C016D106E206F30610F46C
:10452000415051099A01281B390BC9011F910F9164
:10453000FF90EF90DF90CF90089578941F920F92A4
:104540000FB60F9211248F939F93AF93BF938091D7
:104550002F0290913002A0913102B0913202019667
:10456000A11DB11D80932F0290933002A0933102C0
:10457000B0933202BF91AF919F918F910F900FBE78
:104580000F901F90189587E797E790930108809305
:1045900000089AE088E10FB6F894A895809360002F
:1045A0000FBE90936000FFCF0E947121811102C065
:1045B0000E944B210E947C218093EC010E94892162
:1045C00090E090933402809333020E948021682F00
:1045D00070E080E090E00C945F1F8091F00180FF1C
:1045E0000BC06091080185E0689FB00111247595AA
:1045F0006795759567952BC081FF09C0609108018B
:1046000085E0689FB00111247595679520C082FFF1
:1046100007C06091080185E0689FB001112417C0B0
:104620009091F1019923D1F060910701961788F7D5
:104630002091080185E0289F90011124929FA001FC
:10464000939F500D112470E0CA010E943F326038E0
:10465000710540F46115710519F406C065E070E05C
:10466000862F08958FE7089581E008958091F001E5
:1046700080FF08C06091060170E07595679575959B
:10468000679521C081FF06C06091060170E07595B5
:10469000679519C082FF04C06091060170E010C0E8
:1046A0009091F101992399F0609105019617A0F777
:1046B00080910601899FC001112470E00E943F3261
:1046C0006038710540F46115710519F406C061E0A8
:1046D00070E0862F08958FE7089581E00895803F68
:1046E00021F40E94ED22819504C0813F29F40E94AB
:1046F000ED228093F4010895823F21F40E94ED227F
:10470000819504C0833F29F40E94ED228093F30138
:104710000895893F19F40E94362305C08A3F31F479
:104720000E94362381958093F50108958B3F21F4F3
:104730000E943623819504C08C3F29F40E943623C1
:104740008093F6010895843F21F48091F201816005
:1047500017C0853F21F48091F201826011C0863F2D
:1047600021F48091F20184600BC0873F21F4809195
:10477000F201886005C0883F31F48091F2018061C8
:104780008093F20108958D3F21F48091F0018160C2
:104790000BC08E3F21F48091F001826005C08F3FF5
:1047A00029F48091F00184608093F0010895803FA6
:1047B00039F48091F40187FF6CC01092F40169C054
:1047C000813F29F48091F4011816BCF362C09091E6
:1047D000F301823F29F497FF5CC01092F30159C0A6
:1047E000833F19F41916CCF354C0893F41F48091EA
:1047F000F50118160CF04DC01092F5014AC08A3F21
:1048000029F48091F50187FF44C0F6CF8B3F39F43E
:104810008091F60187FF3DC01092F6013AC08C3FAF
:1048200029F48091F6011816BCF333C0843F21F4BB
:104830008091F2018E7F17C0853F21F48091F201B3
:104840008D7F11C0863F21F48091F2018B7F0BC0D8
:10485000873F21F48091F201877F05C0883F31F4C2
:104860008091F2018F7E8093F20113C08D3F21F47D
:104870008091F0018E7F0BC08E3F21F48091F0017A
:104880008D7F05C08F3F29F48091F0018B7F80934D
:10489000F0018091F30181110EC08091F40181112A
:1048A0000AC08091F501811106C08091F601811145
:1048B00002C01092F101089582EF91E00E94F81574
:1048C0000E9467229093EF018093EE0108951F9359
:1048D000CF93DF938091EE019091EF010E947322BC
:1048E000AC019091F101992321F02091090130E070
:1048F00006C020910A018AE0289F900111244217E6
:10490000530708F477C08091F301C091F401D0916E
:10491000F5011091F601811107C0C11167C0D111D5
:1049200065C0111163C066C09F3F19F09F5F9093EF
:10493000F101181624F40E94ED228093F301809176
:10494000F30187FF05C00E94ED2281958093F3015A
:104950001C1624F40E94ED228093F4018091F4014E
:1049600087FF05C00E94ED2281958093F40130916C
:10497000F3013323C1F02091F4012223A1F045EB90
:104980003403C0011124892F911101C081E080936B
:10499000F30135EB2303C0011124892F911101C0CC
:1049A00081E08093F4011D1624F40E943623809345
:1049B000F5018091F50187FF05C00E94362381959E
:1049C0008093F501111624F40E9436238093F6019A
:1049D0008091F60187FF05C00E9436238195809360
:1049E000F601DF91CF911F910C945C249F3F09F059
:1049F0009DCFAECFDF91CF911F910895E2EFF1E00F
:104A000085E0DF011D928A95E9F71092F10110927D
:104A1000F0010895833081F128F4813059F082301B
:104A2000D1F00895853009F449C0B8F1863009F411
:104A300056C0089580910A01262F30E0280F311DBD
:104A40002F3F310524F4680F60930A0108958FEF1A
:104A500080930A01089580910901262F30E0280FE4
:104A6000311D2F3F310524F4680F6093090108952B
:104A70008FEF80930901089580910801262F30E07F
:104A8000280F311D2F3F310524F4680F6093080172
:104A900008958FEF80930801089580910701262FD4
:104AA00030E0280F311D2F3F310524F4680F60934B
:104AB000070108958FEF8093070108958091060103
:104AC000262F30E0280F311D2F3F310524F4680FC9
:104AD0006093060108958FEF8093060108958091F9
:104AE0000501262F30E0280F311D2F3F310524F41A
:104AF000680F6093050108958FEF80930501089575
:104B0000833011F128F4813049F0823091F008951A
:104B1000853081F120F18630C1F1089580910A013C
:104B2000681720F4861B80930A01089510920A01E9
:104B3000089580910901681720F4861B809309016C
:104B4000089510920901089580910801681720F4D2
:104B5000861B8093080108951092080108958091A2
:104B60000701681720F4861B8093070108951092AF
:104B70000701089580910601681720F4861B809331
:104B800006010895109206010895809105016817A5
:104B900020F4861B80930501089510920501089565
:104BA0000F931F9341E050E060E070E08A019B01A9
:104BB00004C0000F111F221F331F8A95D2F7C901AD
:104BC000B8010E945F1F1F910F910C94571B8732F1
:104BD000D8F58E3108F07DC08E3009F467C098F4A6
:104BE000873009F455C08B3009F476C0863009F05F
:104BF00077C08091EC01817F8E7F8093EC0181E012
:104C00008093F8010895863109F466C068F4803114
:104C100009F066C08091EC0183FB222720F991E026
:104C2000922790FB83F94BC0893109F455C08B3131
:104C300009F056C08091EC0181FB222720F991E018
:104C4000922790FB81F93BC0883309F445C048F4B2
:104C5000893209F443C0853309F440C08732F1F149
:104C60003FC08334D9F120F48A33D0F1895332C064
:104C70008834B1F50E94571B2FEF83ED90E321504C
:104C800080409040E1F700C000000E94C32224C091
:104C90008091EC01982F9095917090FB80F9809312
:104CA000EC01911119C0897F877F10C08091EC01C0
:104CB00082FB222720F991E0922790FB82F98093D2
:104CC000EC01992349F08091EC0181608093EC0123
:104CD00003C08D510E94D02581E0089580E0FACF75
:104CE00080E0089580E008950C9472268E518A30F9
:104CF00030F4E82FF0E0EA5DFE4F8081089580E017
:104D00000895CF93C82F8091F801813069F018F091
:104D10008230C9F183C0E0910301F09104018081E8
:104D2000823209F07DC007C0E0910301F0910401D7
:104D30008081823261F48C2F0E947426811104C01C
:104D40008C2F0E94E7251DC081E090E01AC08C2FB7
:104D50000E947226811114C0C43179F048F4CB301E
:104D600079F0C03109F060C082E08093F80108C09A
:104D7000C93219F0C83321F057C01092F80154C05D
:104D800081E0817053C0C93289F118F5C43171F1E5
:104D9000B0F4C73009F046C08EE180930A0182E387
:104DA000809309018AE08093080184E180930701E0
:104DB00088E08093060188E28093050133C082EE8B
:104DC0008C0F863078F58C2F0E9476268093F70121
:104DD00029C0CE34E9F020F4CB3421F56AE013C0C9
:104DE000C13579F0C235F1F461E00DC08091F70171
:104DF000882319F01092F70115C081E08093F80123
:104E000015C061E006C08091F7010E940A250AC022
:104E10006AE08091F7010E94802504C01092F80199
:104E200080E004C081E002C080E0ABCFCF91089564
:104E30000E947121811102C00E944B210E94922187
:104E400080933502282F269530E02630310524F056
:104E500081708A60809335028091350280FF02C0A4
:104E6000869501C080E00C94780C20913502822F49
:104E70008695482F50E04530510544F48F5F982FB8
:104E8000990F822F8170892B809335028091350292
:104E90008160809335020E9496218091350286952B
:104EA0000C94780C80913502982F969591F091583A
:104EB000990F8170892B809335028E7F91E009F4E0
:104EC00090E08091350290FB80F9809335020E943A
:104ED00096218091350286950C94780C809135024C
:104EE000982F909590FB80F980933502813019F4CA
:104EF00083E080933502809135020E949621809153
:104F0000350280FF02C0869501C080E00C94780CC9
:104F100090913502892F86958F5F8F7791708630BB
:104F200028F4880F892B8093350202C090933502B4
:104F3000809135028E7F91E009F490E080913502F6
:104F400090FB80F9809335020E9496218091350272
:104F500086950C94780C863008F085E0880F909147
:104F600035029170892B809335028E7F91E009F490
:104F700090E08091350290FB80F9809335020E9489
:104F800096218091350286950C94780C80910102CF
:104F900008950F931F93CF93DF9300D01F92CDB747
:104FA000DEB78C010E94172A823011F0843019F587
:104FB00083E089831B830A838093E9008FEF9091BC
:104FC000E800815095FD06C095ED9A95F1F7000037
:104FD0008111F5CF8091E80085FF0DC040E050E0E1
:104FE00063E070E0CE0101960E94342A8091E800CF
:104FF0008E778093E8000F900F900F90DF91CF9104
:105000001F910F910895CF93DF9300D01F92CDB7DA
:10501000DEB720913A02243031F522E0298380580E
:1050200091099B838A8383E08093E9008FEF9091BD
:10503000E800815095FD06C095ED9A95F1F70000C6
:105040008111F5CF8091E80085FF0DC040E050E070
:1050500063E070E0CE0101960E94342A8091E8005E
:105060008E778093E8000F900F900F90DF91CF9193
:105070000895CF93DF93EC010E94172A823011F03C
:105080008430F9F482E08093E9008FEF9091E8009A
:10509000815095FD06C095ED9A95F1F700008111BC
:1050A000F5CF8091E80085FF0CC040E050E065E05E
:1050B00070E0CE010E94342A8091E8008E778093C0
:1050C000E800DF91CF910895CF93DF93EC010E9428
:1050D000172A823011F0843039F581E08093E9009D
:1050E0008FEF9091E800815095FD06C095ED9A955F
:1050F000F1F700008111F5CF8091E80085FF14C021
:1051000040E050E068E070E0CE010E94342A8091D7
:10511000E8008E778093E80088E0FE01A9EFB1E017
:1051200001900D928A95E1F7DF91CF9108958091DA
:105130003902811109C00E94C52B0E94222C809146
:10514000E20084608093E20008951092390208958D
:10515000089508950C942B2242E061EC81E00E94B6
:105160003E2B42E061EC82E00E943E2B42E061EC8B
:1051700083E00C943E2B80913C02833009F453C0B1
:1051800030F4813071F0823009F48CC008958A3097
:1051900009F478C08B3009F45EC0893009F09AC0F8
:1051A00020C080913B02813A09F094C08091E800D0
:1051B000877F8093E80080913F0290914002892B85
:1051C00021F468E089EF91E003C060E080E090E0C6
:1051D00070E00E947F2A8091E8008B778093E8003E
:1051E000089580913B02813209F074C080913F02A2
:1051F00090914002892B09F06DC08091E800877F73
:105200008093E8008091E80082FD05C080913A0219
:105210008111F8CF5FC08091F100809301028091ED
:10522000E8008B7753C080913B02813A09F052C06D
:1052300080913F0290914002892B09F04BC08091F0
:10524000E800877F8093E8008091E80080FFFCCF32
:105250008091150136C080913B028132D9F5809151
:105260003F0290914002892BA9F58091E800877F49
:105270008093E8000E94732B80913D02809315017A
:105280000C94571B80913B02813221F58091E800FC
:10529000877F8093E8000E94732B80913E02809369
:1052A0000202089580913B02813AA1F48091E800C6
:1052B000877F8093E8008091E80080FFFCCF809199
:1052C00002028093F1008091E8008E778093E800DD
:1052D0000C94732B089584B7877F84BF0FB6F8941E
:1052E000A8958091600088618093600010926000B2
:1052F0000FBE80E880936100109261000E942F161B
:105300000E94C52B0E94222C8091E2008460809331
:10531000E20078940E94B72E0E9433168BE091E051
:105320000E94DC1580913A02853069F40E94F821D0
:10533000809138028823B1F30E94E021882391F301
:105340000E941E2AEFCF0E9443160E946B15EACFDF
:105350000C94AA29292F332723303105C9F060F492
:105360002130310581F02230310509F047C084E554
:1053700090E02CED3AE046C02132310511F12232A5
:10538000310561F13BC082E190E020E33BE03AC0AF
:1053900099278130910561F040F08230910559F0F4
:1053A000039761F5E4EAFAE008C0E8EDFAE005C029
:1053B000E8ECFAE002C0EAEAFAE0849190E09F01AA
:1053C00021C063307105D0F4660F771FFB01E75CE5
:1053D000FE4F2081318189E090E014C06330710577
:1053E00068F4FB01EE0FFF1FED5CFE4F2081318161
:1053F000FB01E05DFE4F808190E004C080E090E022
:1054000020E030E0FA013183208308950895CF939E
:10541000C82F0E94062AC0930302CF91089580915D
:105420003A02843011F081E0089582E0089580917D
:105430000302811102C00C940F2A089580E189BDF6
:1054400082E189BD09B400FEFDCF8091D8008F7D37
:105450008093D8008091E00082608093E00080918A
:10546000E00081FDFCCF0895CF92DF92EF92FF9292
:105470000F931F93CF93DF93EC018B017A010E946E
:10548000922B811133C0E114F10439F0F7018081CE
:105490009181081B190BC80FD91FC12CD12C0115E4
:1054A000110519F18091E80085FD16C08091E80092
:1054B0008E778093E800E114F10449F0F7018081D0
:1054C0009181C80ED91ED182C08285E00FC00E9492
:1054D000922B882321F30AC089918093F100015017
:1054E0001109FFEFCF1ADF0ADACF80E0DF91CF9109
:1054F0001F910F91FF90EF90DF90CF900895209132
:105500004102309142022617370748F061157105B4
:1055100039F42091E8002E772093E80001C0B9010A
:10552000FC0120E06115710579F180913A02882330
:10553000F1F18530F1F18091E80083FD3CC080916C
:10554000E80082FD2EC08091E80080FFEBCF209123
:10555000F3008091F20090E0922B6115710551F0FB
:105560008830910538F421912093F1006150710940
:105570000196F3CF21E0089709F020E08091E80040
:105580008E778093E800CECF2111CFCF0AC08091D3
:105590003A02882361F0853061F08091E80083FD54
:1055A0000AC08091E80082FFF2CF80E0089582E097
:1055B000089583E0089581E008952091410230919B
:1055C00042022617370748F06115710539F420911A
:1055D000E8002E772093E80001C0B901FC0120E02B
:1055E0006115710591F180913A02882309F440C058
:1055F000853009F43FC08091E80083FD3DC0809173
:10560000E80082FD2FC08091E80080FFE9CF209163
:10561000F3008091F20090E0922B6115710559F032
:105620008830910540F424912093F1003196615027
:1056300071090196F2CF21E0089709F020E08091EE
:10564000E8008E778093E800CBCF2111CCCF0AC041
:1056500080913A02882361F0853061F08091E80002
:1056600083FD0AC08091E80082FFF2CF80E00895B8
:1056700082E0089583E0089581E00895982F97309F
:1056800068F59093E900981739F07091EC0020913B
:10569000ED005091F00003C0242F762F50E021FD43
:1056A00002C09F5FECCF3091EB003E7F3093EB0068
:1056B0003091ED003D7F3093ED003091EB00316093
:1056C0003093EB007093EC002093ED005093F000CA
:1056D0002091EE0027FDE5CF80E008958F70809344
:1056E000E90081E0089580913B0287FF11C080911D
:1056F000E80082FD05C080913A028111F8CF11C007
:105700008091E8008B770BC080913A02882349F0A2
:105710008091E80080FFF8CF8091E8008E77809339
:10572000E80008952091E4003091E50095E640916D
:10573000EC00842F817040FF23C08091E80080FD41
:105740001DC080913A02882399F0853099F08091AC
:10575000EB0085FD11C04091E4005091E500241755
:10576000350729F3915011F09A01E1CF84E00895B3
:1057700082E0089583E0089581E0089580E008952F
:105780004091E80042FFDDCF08950E94332C0E9433
:105790003B2CE0EEF0E0808181608083E8EDF0E07A
:1057A00080818F77808319BCA7EDB0E08C918E7FCC
:1057B0008C9380818F7E80831092390208950F939D
:1057C0001F93CF93DF930E94332C0E943B2CC8ED94
:1057D000D0E088818F7788838881806888838881FA
:1057E0008F7D888319BC10923A0210923602109273
:1057F00038021092370200EE10E0F80180818B7FB2
:10580000808388818160888342E060E080E00E943C
:105810003E2BE1EEF0E080818E7F8083E2EEF0E0CF
:10582000808181608083808188608083F8018081AD
:105830008E7F8083888180618883DF91CF911F91E3
:105840000F910895E8EDF0E080818F7E8083E7ED91
:10585000F0E080818160808384E082BF81E080937A
:1058600039020C94DF2BE8EDF0E080818E7F80839D
:105870001092E20008951092DA001092E10008956B
:105880001F920F920FB60F9211242F933F934F93B5
:105890005F936F937F938F939F93AF93BF93EF9398
:1058A000FF938091E10082FF0BC08091E20082FFB4
:1058B00007C08091E1008B7F8093E1000E94B62EAB
:1058C0008091DA0080FF1FC08091D80080FF1BC04C
:1058D0008091DA008E7F8093DA008091D90080FF7A
:1058E0000DC080E189BD82E189BD09B400FEFDCF14
:1058F00081E080933A020E94972805C019BC10925B
:105900003A020E94A5288091E10080FF19C0809191
:10591000E20080FF15C08091E2008E7F8093E2005C
:105920008091E20080618093E2008091D8008062E3
:105930008093D80019BC85E080933A020E94A92880
:105940008091E10084FF30C08091E20084FF2CC090
:1059500080E189BD82E189BD09B400FEFDCF80915F
:10596000D8008F7D8093D8008091E1008F7E809356
:10597000E1008091E2008F7E8093E2008091E2005E
:1059800081608093E20080913602882311F084E0E8
:1059900007C08091E30087FD02C081E001C083E081
:1059A00080933A020E94AA288091E10083FF29C0D7
:1059B0008091E20083FF25C08091E100877F809382
:1059C000E10082E080933A02109236028091E10079
:1059D0008E7F8093E1008091E2008E7F8093E200D1
:1059E0008091E20080618093E20042E060E080E02C
:1059F0000E943E2B8091F00088608093F0000E940E
:105A0000A828FF91EF91BF91AF919F918F917F91C6
:105A10006F915F914F913F912F910F900FBE0F901B
:105A20001F9018951F920F920FB60F9211242F936B
:105A30003F934F935F936F937F938F939F93AF9316
:105A4000BF93CF93DF93EF93FF93C091E900CF70A3
:105A50008091EC00D82FD17080FDD0E81092E90041
:105A60008091F000877F8093F00078940E94562DFB
:105A70001092E9008091F00088608093F000CD2BB7
:105A8000CF70C093E900FF91EF91DF91CF91BF916B
:105A9000AF919F918F917F916F915F914F913F91C6
:105AA0002F910F900FBE0F901F9018951F93CF93BB
:105AB000DF93CDB7DEB7AA970FB6F894DEBF0FBE5F
:105AC000CDBFEBE3F2E08091F100819322E0E3347B
:105AD000F207C9F70E94BB288091E80083FF2EC11E
:105AE00080913B0290913C02492F50E04A30510591
:105AF00008F024C1FA01E556FF4F0C947532803846
:105B000021F0823809F01AC108C0809137029091C3
:105B10003802992389F082600FC080913F028F7014
:105B2000873008F00BC18093E9008091EB0085FB82
:105B3000882780F91092E9009091E800977F909370
:105B4000E8008093F1001092F100D1C0282F2D7F42
:105B500009F0F4C0882319F0823061F0EFC0809121
:105B60003D02813009F0EAC0933009F080E0809373
:105B700038022EC080913D0281112AC080913F02DF
:105B80008F702FEF280F263008F0D8C08093E900DF
:105B90002091EB0020FF1CC0933021F48091EB009A
:105BA000806214C09091EB0090619093EB0021E033
:105BB00030E0A90102C0440F551F8A95E2F74093D7
:105BC000EA001092EA008091EB0088608093EB007D
:105BD0001092E9008091E800877F8093E8000E949E
:105BE000732BACC08111AAC010913D021F77809128
:105BF000E3008078812B8093E3008091E800877F29
:105C00008093E8000E94732B8091E80080FFFCCF16
:105C10008091E30080688093E300111102C082E06C
:105C200001C083E080933A0289C08058823008F036
:105C300085C080913D0290913E028C3D53E09507D6
:105C400079F583E08A838AE289834FB7F894DE018D
:105C5000139620E03EE051E2E32FF0E0509357002E
:105C6000E49120FF03C0E295EF703F5FEF708E2F4D
:105C700090E0EA3010F0C79601C0C0968D939D93D6
:105C80002F5F243149F74FBF8091E800877F8093D1
:105C9000E8006AE270E0CE0101960E947F2A16C0F9
:105CA00060913F0270914002AE014F5F5F4F0E94D2
:105CB000A829BC01892B09F441C09091E800977F85
:105CC0009093E80089819A810E94DD2A8091E80002
:105CD0008B778093E80032C0803881F58091E800AE
:105CE000877F8093E800809136028093F100809155
:105CF000E8008E7772CF811121C080913D02909192
:105D00003E0299270297D4F48091E800877F809320
:105D1000E80080913D02809336020E94732B8091AF
:105D20003602811106C08091E30087FD02C081E048
:105D300001C084E080933A020E94AC288091E80080
:105D400083FF0AC08091E800877F8093E8008091FC
:105D5000EB0080628093EB00AA960FB6F894DEBF4A
:105D60000FBECDBFDF91CF911F9108950895CF93BE
:105D700080913A028823A1F0C091E900CF70909100
:105D8000EC00892F817090FD80E8C82B1092E9000B
:105D90008091E80083FD0E94562DCF70C093E900EA
:105DA000CF9108955058BB27AA270E94EA2E0C9441
:105DB00095300E94873038F00E948E3020F039F400
:105DC0009F3F19F426F40C945D300EF4E095E7FB48
:105DD0000C945730E92F0E94A63058F3BA17620787
:105DE00073078407950720F079F4A6F50C94C83062
:105DF0000EF4E0950B2EBA2FA02D0B01B9019001E6
:105E00000C01CA01A0011124FF27591B99F0593F29
:105E100050F4503E68F11A16F040A22F232F342F71
:105E20004427585FF3CF469537952795A795F040BF
:105E30005395C9F77EF41F16BA0B620B730B840BD4
:105E4000BAF09150A1F0FF0FBB1F661F771F881F8C
:105E5000C2F70EC0BA0F621F731F841F48F48795E4
:105E600077956795B795F7959E3F08F0B0CF9395D6
:105E7000880F08F09927EE0F9795879508950E944F
:105E8000532F0C9495300E948E3058F00E9487302A
:105E900040F029F45F3F29F00C94573051110C94D5
:105EA000C9300C945D300E94A63068F39923B1F399
:105EB000552391F3951B550BBB27AA276217730730
:105EC000840738F09F5F5F4F220F331F441FAA1FC4
:105ED000A9F335D00E2E3AF0E0E832D09150504080
:105EE000E695001CCAF72BD0FE2F29D0660F771F2E
:105EF000881FBB1F261737074807AB07B0E809F014
:105F0000BB0B802DBF01FF2793585F4F3AF09E3F98
:105F1000510578F00C9457300C94C9305F3FE4F38E
:105F2000983ED4F3869577956795B795F7959F5FDB
:105F3000C9F7880F911D9695879597F90895E1E027
:105F4000660F771F881FBB1F621773078407BA0786
:105F500020F0621B730B840BBA0BEE1F88F7E095E1
:105F6000089529F416F00C9457300C94C8300C9412
:105F70005D300E94AE30A8F39638A0F707F80F9274
:105F8000E8942BE33AEA48EB5FE70E945B310F921B
:105F90000F920F924DB75EB70F920E941131EAE453
:105FA000F1E00E9460304F915F91EF91FF91E59594
:105FB000EE1FFF1F49F0FE57E0684427EE0F441F15
:105FC000FA95E1F74195550B0E94DB300F9007FEE3
:105FD0000C94CF3008950E94AE3088F09F5798F00F
:105FE000B92F9927B751B0F0E1F0660F771F881FDE
:105FF000991F1AF0BA95C9F714C0B13091F00E94F8
:10600000C830B1E008950C94C830672F782F8827E6
:10601000B85F39F0B93FCCF3869577956795B3951E
:10602000D9F73EF490958095709561957F4F8F4F8D
:106030009F4F0895E89409C097FB3EF49095809592
:10604000709561957F4F8F4F9F4F9923A9F0F92F3E
:1060500096E9BB279395F695879577956795B795BC
:10606000F111F8CFFAF4BB0F11F460FF1BC06F5FA2
:106070007F4F8F4F9F4F16C0882311F096E911C0B4
:10608000772321F09EE8872F762F05C0662371F0D5
:1060900096E8862F70E060E02AF09A95660F771FE9
:1060A000881FDAF7880F9695879597F9089597F9DD
